{
  "contractName": "Panda",
  "abi": [
    {
      "inputs": [],
      "stateMutability": "nonpayable",
      "type": "constructor"
    },
    {
      "anonymous": false,
      "inputs": [
        {
          "indexed": true,
          "internalType": "address",
          "name": "owner",
          "type": "address"
        },
        {
          "indexed": true,
          "internalType": "address",
          "name": "approved",
          "type": "address"
        },
        {
          "indexed": true,
          "internalType": "uint256",
          "name": "tokenId",
          "type": "uint256"
        }
      ],
      "name": "Approval",
      "type": "event"
    },
    {
      "anonymous": false,
      "inputs": [
        {
          "indexed": true,
          "internalType": "address",
          "name": "owner",
          "type": "address"
        },
        {
          "indexed": true,
          "internalType": "address",
          "name": "operator",
          "type": "address"
        },
        {
          "indexed": false,
          "internalType": "bool",
          "name": "approved",
          "type": "bool"
        }
      ],
      "name": "ApprovalForAll",
      "type": "event"
    },
    {
      "anonymous": false,
      "inputs": [
        {
          "indexed": true,
          "internalType": "address",
          "name": "from",
          "type": "address"
        },
        {
          "indexed": true,
          "internalType": "address",
          "name": "to",
          "type": "address"
        },
        {
          "indexed": true,
          "internalType": "uint256",
          "name": "tokenId",
          "type": "uint256"
        }
      ],
      "name": "Transfer",
      "type": "event"
    },
    {
      "inputs": [
        {
          "internalType": "address",
          "name": "to",
          "type": "address"
        },
        {
          "internalType": "uint256",
          "name": "tokenId",
          "type": "uint256"
        }
      ],
      "name": "approve",
      "outputs": [],
      "stateMutability": "nonpayable",
      "type": "function"
    },
    {
      "inputs": [
        {
          "internalType": "address",
          "name": "owner",
          "type": "address"
        }
      ],
      "name": "balanceOf",
      "outputs": [
        {
          "internalType": "uint256",
          "name": "",
          "type": "uint256"
        }
      ],
      "stateMutability": "view",
      "type": "function",
      "constant": true
    },
    {
      "inputs": [
        {
          "internalType": "uint256",
          "name": "tokenId",
          "type": "uint256"
        }
      ],
      "name": "getApproved",
      "outputs": [
        {
          "internalType": "address",
          "name": "",
          "type": "address"
        }
      ],
      "stateMutability": "view",
      "type": "function",
      "constant": true
    },
    {
      "inputs": [
        {
          "internalType": "address",
          "name": "owner",
          "type": "address"
        },
        {
          "internalType": "address",
          "name": "operator",
          "type": "address"
        }
      ],
      "name": "isApprovedForAll",
      "outputs": [
        {
          "internalType": "bool",
          "name": "",
          "type": "bool"
        }
      ],
      "stateMutability": "view",
      "type": "function",
      "constant": true
    },
    {
      "inputs": [],
      "name": "name",
      "outputs": [
        {
          "internalType": "string",
          "name": "",
          "type": "string"
        }
      ],
      "stateMutability": "view",
      "type": "function",
      "constant": true
    },
    {
      "inputs": [
        {
          "internalType": "uint256",
          "name": "tokenId",
          "type": "uint256"
        }
      ],
      "name": "ownerOf",
      "outputs": [
        {
          "internalType": "address",
          "name": "",
          "type": "address"
        }
      ],
      "stateMutability": "view",
      "type": "function",
      "constant": true
    },
    {
      "inputs": [
        {
          "internalType": "address",
          "name": "from",
          "type": "address"
        },
        {
          "internalType": "address",
          "name": "to",
          "type": "address"
        },
        {
          "internalType": "uint256",
          "name": "tokenId",
          "type": "uint256"
        }
      ],
      "name": "safeTransferFrom",
      "outputs": [],
      "stateMutability": "nonpayable",
      "type": "function"
    },
    {
      "inputs": [
        {
          "internalType": "address",
          "name": "from",
          "type": "address"
        },
        {
          "internalType": "address",
          "name": "to",
          "type": "address"
        },
        {
          "internalType": "uint256",
          "name": "tokenId",
          "type": "uint256"
        },
        {
          "internalType": "bytes",
          "name": "_data",
          "type": "bytes"
        }
      ],
      "name": "safeTransferFrom",
      "outputs": [],
      "stateMutability": "nonpayable",
      "type": "function"
    },
    {
      "inputs": [
        {
          "internalType": "address",
          "name": "operator",
          "type": "address"
        },
        {
          "internalType": "bool",
          "name": "approved",
          "type": "bool"
        }
      ],
      "name": "setApprovalForAll",
      "outputs": [],
      "stateMutability": "nonpayable",
      "type": "function"
    },
    {
      "inputs": [
        {
          "internalType": "bytes4",
          "name": "interfaceId",
          "type": "bytes4"
        }
      ],
      "name": "supportsInterface",
      "outputs": [
        {
          "internalType": "bool",
          "name": "",
          "type": "bool"
        }
      ],
      "stateMutability": "view",
      "type": "function",
      "constant": true
    },
    {
      "inputs": [],
      "name": "symbol",
      "outputs": [
        {
          "internalType": "string",
          "name": "",
          "type": "string"
        }
      ],
      "stateMutability": "view",
      "type": "function",
      "constant": true
    },
    {
      "inputs": [],
      "name": "tokenCounter",
      "outputs": [
        {
          "internalType": "uint256",
          "name": "",
          "type": "uint256"
        }
      ],
      "stateMutability": "view",
      "type": "function",
      "constant": true
    },
    {
      "inputs": [
        {
          "internalType": "uint256",
          "name": "tokenId",
          "type": "uint256"
        }
      ],
      "name": "tokenURI",
      "outputs": [
        {
          "internalType": "string",
          "name": "",
          "type": "string"
        }
      ],
      "stateMutability": "view",
      "type": "function",
      "constant": true
    },
    {
      "inputs": [
        {
          "internalType": "address",
          "name": "from",
          "type": "address"
        },
        {
          "internalType": "address",
          "name": "to",
          "type": "address"
        },
        {
          "internalType": "uint256",
          "name": "tokenId",
          "type": "uint256"
        }
      ],
      "name": "transferFrom",
      "outputs": [],
      "stateMutability": "nonpayable",
      "type": "function"
    },
    {
      "inputs": [
        {
          "internalType": "string",
          "name": "tokenURI",
          "type": "string"
        }
      ],
      "name": "createCollectible",
      "outputs": [
        {
          "internalType": "uint256",
          "name": "",
          "type": "uint256"
        }
      ],
      "stateMutability": "nonpayable",
      "type": "function"
    }
  ],
  "bytecode": "0x60806040523480156200001157600080fd5b506040518060400160405280600581526020017f50616e64610000000000000000000000000000000000000000000000000000008152506040518060400160405280600581526020017f50414e4441000000000000000000000000000000000000000000000000000000815250816000908051906020019062000096929190620000ba565b508051620000ac906001906020840190620000ba565b5050600060075550620001b6565b828054620000c89062000160565b90600052602060002090601f016020900481019282620000ec576000855562000137565b82601f106200010757805160ff191683800117855562000137565b8280016001018555821562000137579182015b82811115620001375782518255916020019190600101906200011a565b506200014592915062000149565b5090565b5b808211156200014557600081556001016200014a565b6002810460018216806200017557607f821691505b60208210811415620001b0577f4e487b7100000000000000000000000000000000000000000000000000000000600052602260045260246000fd5b50919050565b611a2580620001c66000396000f3fe608060405234801561001057600080fd5b5060043610610112576000357c0100000000000000000000000000000000000000000000000000000000900480636352211e116100b4578063b88d4fde11610083578063b88d4fde14610211578063c87b56dd14610224578063d082e38114610237578063e985e9c51461023f57610112565b80636352211e146101d057806370a08231146101e357806395d89b41146101f6578063a22cb465146101fe57610112565b8063095ea7b3116100f0578063095ea7b31461017557806323b872dd1461018a57806331f1f3c31461019d57806342842e0e146101bd57610112565b806301ffc9a71461011757806306fdde0314610140578063081812fc14610155575b600080fd5b61012a6101253660046111eb565b610252565b604051610137919061132c565b60405180910390f35b6101486102cc565b6040516101379190611337565b610168610163366004611269565b61035e565b60405161013791906112dc565b6101886101833660046111c2565b6103ad565b005b6101886101983660046110d4565b61044b565b6101b06101ab366004611223565b610486565b60405161013791906118a6565b6101886101cb3660046110d4565b6104b7565b6101686101de366004611269565b6104d2565b6101b06101f1366004611088565b61050a565b610148610551565b61018861020c366004611188565b610560565b61018861021f36600461110f565b610576565b610148610232366004611269565b6105b8565b6101b06106dc565b61012a61024d3660046110a2565b6106e2565b6000600160e060020a031982167f80ac58cd0000000000000000000000000000000000000000000000000000000014806102b55750600160e060020a031982167f5b5e139f00000000000000000000000000000000000000000000000000000000145b806102c457506102c482610710565b90505b919050565b6060600080546102db9061191e565b80601f01602080910402602001604051908101604052809291908181526020018280546103079061191e565b80156103545780601f1061032957610100808354040283529160200191610354565b820191906000526020600020905b81548152906001019060200180831161033757829003601f168201915b5050505050905090565b600061036982610742565b6103915760405160e560020a62461bcd028152600401610388906116d5565b60405180910390fd5b50600090815260046020526040902054600160a060020a031690565b60006103b8826104d2565b905080600160a060020a031683600160a060020a031614156103ef5760405160e560020a62461bcd028152600401610388906117ec565b80600160a060020a031661040161075f565b600160a060020a0316148061041d575061041d8161024d61075f565b61043c5760405160e560020a62461bcd028152600401610388906114cf565b6104468383610763565b505050565b61045c61045661075f565b826107de565b61047b5760405160e560020a62461bcd02815260040161038890611849565b61044683838361085e565b600754600090610496338261099e565b6104a081846109b8565b6007546104ae9060016118af565b60075592915050565b61044683838360405180602001604052806000815250610576565b600081815260026020526040812054600160a060020a0316806102c45760405160e560020a62461bcd02815260040161038890611589565b6000600160a060020a0382166105355760405160e560020a62461bcd0281526004016103889061152c565b50600160a060020a031660009081526003602052604090205490565b6060600180546102db9061191e565b61057261056b61075f565b83836109ff565b5050565b61058761058161075f565b836107de565b6105a65760405160e560020a62461bcd02815260040161038890611849565b6105b284848484610aa5565b50505050565b60606105c382610742565b6105e25760405160e560020a62461bcd02815260040161038890611678565b600082815260066020526040812080546105fb9061191e565b80601f01602080910402602001604051908101604052809291908181526020018280546106279061191e565b80156106745780601f1061064957610100808354040283529160200191610674565b820191906000526020600020905b81548152906001019060200180831161065757829003601f168201915b505050505090506000610685610adb565b9050805160001415610699575090506102c7565b8151156106cb5780826040516020016106b39291906112ad565b604051602081830303815290604052925050506102c7565b6106d484610aed565b949350505050565b60075481565b600160a060020a03918216600090815260056020908152604080832093909416825291909152205460ff1690565b600160e060020a031981167f01ffc9a70000000000000000000000000000000000000000000000000000000014919050565b600090815260026020526040902054600160a060020a0316151590565b3390565b6000818152600460205260409020805473ffffffffffffffffffffffffffffffffffffffff1916600160a060020a03841690811790915581906107a5826104d2565b600160a060020a03167f8c5be1e5ebec7d5bd14f71427d1e84f3dd0314c0f7b2291e5b200ac8c7c3b92560405160405180910390a45050565b60006107e982610742565b6108085760405160e560020a62461bcd02815260040161038890611472565b6000610813836104d2565b905080600160a060020a031684600160a060020a0316148061084e575083600160a060020a03166108438461035e565b600160a060020a0316145b806106d457506106d481856106e2565b82600160a060020a0316610871826104d2565b600160a060020a03161461089a5760405160e560020a62461bcd02815260040161038890611732565b600160a060020a0382166108c35760405160e560020a62461bcd028152600401610388906113de565b6108ce838383610446565b6108d9600082610763565b600160a060020a03831660009081526003602052604081208054600192906109029084906118db565b9091555050600160a060020a03821660009081526003602052604081208054600192906109309084906118af565b9091555050600081815260026020526040808220805473ffffffffffffffffffffffffffffffffffffffff1916600160a060020a0386811691821790925591518493918716917fddf252ad1be2c89b69c2b068fc378daa952ba7f163c4a11628f55a4df523b3ef91a4505050565b610572828260405180602001604052806000815250610b73565b6109c182610742565b6109e05760405160e560020a62461bcd028152600401610388906115e6565b6000828152600660209081526040909120825161044692840190610f68565b81600160a060020a031683600160a060020a03161415610a345760405160e560020a62461bcd0281526004016103889061143b565b600160a060020a0383811660008181526005602090815260408083209487168084529490915290819020805460ff1916851515179055517f17307eab39ab6107e8899845ad3d59bd9653f200f220920489ca2b5937696c3190610a9890859061132c565b60405180910390a3505050565b610ab084848461085e565b610abc84848484610ba9565b6105b25760405160e560020a62461bcd0281526004016103889061134a565b60408051602081019091526000815290565b6060610af882610742565b610b175760405160e560020a62461bcd0281526004016103889061178f565b6000610b21610adb565b90506000815111610b415760405180602001604052806000815250610b6c565b80610b4b84610cfc565b604051602001610b5c9291906112ad565b6040516020818303038152906040525b9392505050565b610b7d8383610e70565b610b8a6000848484610ba9565b6104465760405160e560020a62461bcd0281526004016103889061134a565b6000610bbd84600160a060020a0316610f62565b15610cf15783600160a060020a031663150b7a02610bd961075f565b8786866040518563ffffffff167c0100000000000000000000000000000000000000000000000000000000028152600401610c1794939291906112f0565b602060405180830381600087803b158015610c3157600080fd5b505af1925050508015610c61575060408051601f3d908101601f19168201909252610c5e91810190611207565b60015b610cbe573d808015610c8f576040519150601f19603f3d011682016040523d82523d6000602084013e610c94565b606091505b508051610cb65760405160e560020a62461bcd0281526004016103889061134a565b805181602001fd5b600160e060020a0319167f150b7a02000000000000000000000000000000000000000000000000000000001490506106d4565b506001949350505050565b606081610d3d575060408051808201909152600181527f300000000000000000000000000000000000000000000000000000000000000060208201526102c7565b8160005b8115610d675780610d518161195c565b9150610d609050600a836118c7565b9150610d41565b60008167ffffffffffffffff811115610d935760e060020a634e487b7102600052604160045260246000fd5b6040519080825280601f01601f191660200182016040528015610dbd576020820181803683370190505b5090505b84156106d457610dd26001836118db565b9150610ddf600a86611977565b610dea9060306118af565b7f010000000000000000000000000000000000000000000000000000000000000002818381518110610e2f5760e060020a634e487b7102600052603260045260246000fd5b60200101907effffffffffffffffffffffffffffffffffffffffffffffffffffffffffffff1916908160001a905350610e69600a866118c7565b9450610dc1565b600160a060020a038216610e995760405160e560020a62461bcd02815260040161038890611643565b610ea281610742565b15610ec25760405160e560020a62461bcd028152600401610388906113a7565b610ece60008383610446565b600160a060020a0382166000908152600360205260408120805460019290610ef79084906118af565b9091555050600081815260026020526040808220805473ffffffffffffffffffffffffffffffffffffffff1916600160a060020a03861690811790915590518392907fddf252ad1be2c89b69c2b068fc378daa952ba7f163c4a11628f55a4df523b3ef908290a45050565b3b151590565b828054610f749061191e565b90600052602060002090601f016020900481019282610f965760008555610fdc565b82601f10610faf57805160ff1916838001178555610fdc565b82800160010185558215610fdc579182015b82811115610fdc578251825591602001919060010190610fc1565b50610fe8929150610fec565b5090565b5b80821115610fe85760008155600101610fed565b600067ffffffffffffffff8084111561101c5761101c6119bd565b604051601f8501601f191681016020018281118282101715611040576110406119bd565b60405284815291508183850186101561105857600080fd5b8484602083013760006020868301015250509392505050565b8035600160a060020a03811681146102c757600080fd5b600060208284031215611099578081fd5b610b6c82611071565b600080604083850312156110b4578081fd5b6110bd83611071565b91506110cb60208401611071565b90509250929050565b6000806000606084860312156110e8578081fd5b6110f184611071565b92506110ff60208501611071565b9150604084013590509250925092565b60008060008060808587031215611124578081fd5b61112d85611071565b935061113b60208601611071565b925060408501359150606085013567ffffffffffffffff81111561115d578182fd5b8501601f8101871361116d578182fd5b61117c87823560208401611001565b91505092959194509250565b6000806040838503121561119a578182fd5b6111a383611071565b9150602083013580151581146111b7578182fd5b809150509250929050565b600080604083850312156111d4578182fd5b6111dd83611071565b946020939093013593505050565b6000602082840312156111fc578081fd5b8135610b6c816119d6565b600060208284031215611218578081fd5b8151610b6c816119d6565b600060208284031215611234578081fd5b813567ffffffffffffffff81111561124a578182fd5b8201601f8101841361125a578182fd5b6106d484823560208401611001565b60006020828403121561127a578081fd5b5035919050565b600081518084526112998160208601602086016118f2565b601f01601f19169290920160200192915050565b600083516112bf8184602088016118f2565b8351908301906112d38183602088016118f2565b01949350505050565b600160a060020a0391909116815260200190565b6000600160a060020a038087168352808616602084015250836040830152608060608301526113226080830184611281565b9695505050505050565b901515815260200190565b600060208252610b6c6020830184611281565b60208082526032908201527f4552433732313a207472616e7366657220746f206e6f6e20455243373231526560408201527f63656976657220696d706c656d656e7465720000000000000000000000000000606082015260800190565b6020808252601c908201527f4552433732313a20746f6b656e20616c7265616479206d696e74656400000000604082015260600190565b60208082526024908201527f4552433732313a207472616e7366657220746f20746865207a65726f2061646460408201527f7265737300000000000000000000000000000000000000000000000000000000606082015260800190565b60208082526019908201527f4552433732313a20617070726f766520746f2063616c6c657200000000000000604082015260600190565b6020808252602c908201527f4552433732313a206f70657261746f7220717565727920666f72206e6f6e657860408201527f697374656e7420746f6b656e0000000000000000000000000000000000000000606082015260800190565b60208082526038908201527f4552433732313a20617070726f76652063616c6c6572206973206e6f74206f7760408201527f6e6572206e6f7220617070726f76656420666f7220616c6c0000000000000000606082015260800190565b6020808252602a908201527f4552433732313a2062616c616e636520717565727920666f7220746865207a6560408201527f726f206164647265737300000000000000000000000000000000000000000000606082015260800190565b60208082526029908201527f4552433732313a206f776e657220717565727920666f72206e6f6e657869737460408201527f656e7420746f6b656e0000000000000000000000000000000000000000000000606082015260800190565b6020808252602e908201527f45524337323155524953746f726167653a2055524920736574206f66206e6f6e60408201527f6578697374656e7420746f6b656e000000000000000000000000000000000000606082015260800190565b6020808252818101527f4552433732313a206d696e7420746f20746865207a65726f2061646472657373604082015260600190565b60208082526031908201527f45524337323155524953746f726167653a2055524920717565727920666f722060408201527f6e6f6e6578697374656e7420746f6b656e000000000000000000000000000000606082015260800190565b6020808252602c908201527f4552433732313a20617070726f76656420717565727920666f72206e6f6e657860408201527f697374656e7420746f6b656e0000000000000000000000000000000000000000606082015260800190565b60208082526029908201527f4552433732313a207472616e73666572206f6620746f6b656e2074686174206960408201527f73206e6f74206f776e0000000000000000000000000000000000000000000000606082015260800190565b6020808252602f908201527f4552433732314d657461646174613a2055524920717565727920666f72206e6f60408201527f6e6578697374656e7420746f6b656e0000000000000000000000000000000000606082015260800190565b60208082526021908201527f4552433732313a20617070726f76616c20746f2063757272656e74206f776e6560408201527f7200000000000000000000000000000000000000000000000000000000000000606082015260800190565b60208082526031908201527f4552433732313a207472616e736665722063616c6c6572206973206e6f74206f60408201527f776e6572206e6f7220617070726f766564000000000000000000000000000000606082015260800190565b90815260200190565b600082198211156118c2576118c261198b565b500190565b6000826118d6576118d66119a4565b500490565b6000828210156118ed576118ed61198b565b500390565b60005b8381101561190d5781810151838201526020016118f5565b838111156105b25750506000910152565b60028104600182168061193257607f821691505b602082108114156119565760e060020a634e487b7102600052602260045260246000fd5b50919050565b60006000198214156119705761197061198b565b5060010190565b600082611986576119866119a4565b500690565b60e060020a634e487b7102600052601160045260246000fd5b60e060020a634e487b7102600052601260045260246000fd5b60e060020a634e487b7102600052604160045260246000fd5b600160e060020a0319811681146119ec57600080fd5b5056fea264697066735822122048fd8f8662b67fb8c9abcf195152356a61cb3091f2ea2cdca1533a3937a54c2264736f6c63430008000033",
  "immutableReferences": {},
  "source": "// SPDX-License-Identifier: MIT\npragma solidity 0.8.0;\n\nimport \"@openzeppelin/contracts/token/ERC721/extensions/ERC721URIStorage.sol\";\n\ncontract Panda is ERC721URIStorage {\n  uint256 public tokenCounter;\n  constructor () public ERC721 (\"Panda\", \"PANDA\"){\n    tokenCounter = 0;\n  }\n\n  function createCollectible(string memory tokenURI) public returns (uint256) {\n    uint256 newItemId = tokenCounter;\n    _safeMint(msg.sender, newItemId);\n    _setTokenURI(newItemId, tokenURI);\n    tokenCounter = tokenCounter + 1;\n    return newItemId;\n  }\n}",
  "sourcePath": "/home/ruban/Documents/Solidity Learning/nft/contracts/Panda.sol",
  "compiler": {
    "name": "solc",
    "version": "0.8.0+commit.c7dfd78e.Emscripten.clang"
  },
  "schemaVersion": "3.4.3",
  "updatedAt": "2021-12-18T14:05:12.125Z",
  "networkType": "ethereum",
  "devdoc": {
    "kind": "dev",
    "methods": {
      "approve(address,uint256)": {
        "details": "See {IERC721-approve}."
      },
      "balanceOf(address)": {
        "details": "See {IERC721-balanceOf}."
      },
      "getApproved(uint256)": {
        "details": "See {IERC721-getApproved}."
      },
      "isApprovedForAll(address,address)": {
        "details": "See {IERC721-isApprovedForAll}."
      },
      "name()": {
        "details": "See {IERC721Metadata-name}."
      },
      "ownerOf(uint256)": {
        "details": "See {IERC721-ownerOf}."
      },
      "safeTransferFrom(address,address,uint256)": {
        "details": "See {IERC721-safeTransferFrom}."
      },
      "safeTransferFrom(address,address,uint256,bytes)": {
        "details": "See {IERC721-safeTransferFrom}."
      },
      "setApprovalForAll(address,bool)": {
        "details": "See {IERC721-setApprovalForAll}."
      },
      "supportsInterface(bytes4)": {
        "details": "See {IERC165-supportsInterface}."
      },
      "symbol()": {
        "details": "See {IERC721Metadata-symbol}."
      },
      "tokenURI(uint256)": {
        "details": "See {IERC721Metadata-tokenURI}."
      },
      "transferFrom(address,address,uint256)": {
        "details": "See {IERC721-transferFrom}."
      }
    },
    "version": 1
  },
  "userdoc": {
    "kind": "user",
    "methods": {},
    "version": 1
  }
}